{
  "contractName": "ERC165",
  "abi": [
    {
      "inputs": [],
      "stateMutability": "nonpayable",
      "type": "constructor"
    },
    {
      "inputs": [
        {
          "internalType": "bytes4",
          "name": "interfaceId",
          "type": "bytes4"
        }
      ],
      "name": "supportsInterface",
      "outputs": [
        {
          "internalType": "bool",
          "name": "",
          "type": "bool"
        }
      ],
      "stateMutability": "view",
      "type": "function"
    },
    {
      "inputs": [
        {
          "internalType": "bytes4",
          "name": "interfaceId",
          "type": "bytes4"
        }
      ],
      "name": "registerInterface",
      "outputs": [],
      "stateMutability": "nonpayable",
      "type": "function"
    }
  ],
  "bytecode": "0x608060405234801561001057600080fd5b506100407f01ffc9a7a5cef8baa21ed3c5c0d7e23accb804b619e9333b597f47a0d84076e261004560201b60201c565b610196565b63ffffffff60e01b817bffffffffffffffffffffffffffffffffffffffffffffffffffffffff1916036100ad576040517f08c379a00000000000000000000000000000000000000000000000000000000081526004016100a490610176565b60405180910390fd5b6001600080837bffffffffffffffffffffffffffffffffffffffffffffffffffffffff19167bffffffffffffffffffffffffffffffffffffffffffffffffffffffff1916815260200190815260200160002060006101000a81548160ff02191690831515021790555050565b600082825260208201905092915050565b7f496e76616c696420696e74657266616365206964000000000000000000000000600082015250565b6000610160601483610119565b915061016b8261012a565b602082019050919050565b6000602082019050818103600083015261018f81610153565b9050919050565b610335806101a56000396000f3fe608060405234801561001057600080fd5b50600436106100365760003560e01c806301ffc9a71461003b578063214cdb801461006b575b600080fd5b6100556004803603810190610050919061021f565b610087565b6040516100629190610267565b60405180910390f35b6100856004803603810190610080919061021f565b6100ee565b005b6000806000837bffffffffffffffffffffffffffffffffffffffffffffffffffffffff19167bffffffffffffffffffffffffffffffffffffffffffffffffffffffff1916815260200190815260200160002060009054906101000a900460ff169050919050565b63ffffffff60e01b817bffffffffffffffffffffffffffffffffffffffffffffffffffffffff191603610156576040517f08c379a000000000000000000000000000000000000000000000000000000000815260040161014d906102df565b60405180910390fd5b6001600080837bffffffffffffffffffffffffffffffffffffffffffffffffffffffff19167bffffffffffffffffffffffffffffffffffffffffffffffffffffffff1916815260200190815260200160002060006101000a81548160ff02191690831515021790555050565b600080fd5b60007fffffffff0000000000000000000000000000000000000000000000000000000082169050919050565b6101fc816101c7565b811461020757600080fd5b50565b600081359050610219816101f3565b92915050565b600060208284031215610235576102346101c2565b5b60006102438482850161020a565b91505092915050565b60008115159050919050565b6102618161024c565b82525050565b600060208201905061027c6000830184610258565b92915050565b600082825260208201905092915050565b7f496e76616c696420696e74657266616365206964000000000000000000000000600082015250565b60006102c9601483610282565b91506102d482610293565b602082019050919050565b600060208201905081810360008301526102f8816102bc565b905091905056fea2646970667358221220832ed10b33117e5c3df237c2070c9739e63a314611eb2b099cf21e030547744864736f6c634300080d0033",
  "immutableReferences": {},
  "source": "// SPDX-License-Identifier: MIT\r\npragma solidity ^0.8.0;\r\n\r\nimport './interfaces/IERC165.sol';\r\n\r\ncontract ERC165 is IERC165 {\r\n\r\n   mapping( bytes4 => bool ) private _supportedInterfaces;\r\n \r\n  constructor(){\r\n    registerInterface( bytes4( keccak256( 'supportsInterface(bytes4)' ) ) );\r\n  }\r\n\r\n  function supportsInterface(bytes4 interfaceId) external override view returns(bool){\r\n   return _supportedInterfaces[interfaceId];\r\n   }\r\n\r\n   function registerInterface( bytes4 interfaceId ) public {\r\n    require( interfaceId != 0xffffffff, \"Invalid interface id\" );\r\n    _supportedInterfaces[interfaceId] = true;\r\n   } \r\n\r\n\r\n}",
  "sourcePath": "C:\\Users\\sudda\\Desktop\\bc\\kryptobirds\\src\\contracts\\ERC165.sol",
  "compiler": {
    "name": "solc",
    "version": "0.8.13+commit.abaa5c0e.Emscripten.clang"
  },
  "schemaVersion": "3.4.7",
  "updatedAt": "2022-04-30T17:26:48.932Z",
  "devdoc": {
    "kind": "dev",
    "methods": {},
    "version": 1
  },
  "userdoc": {
    "kind": "user",
    "methods": {},
    "version": 1
  }
}