{
  "contractName": "ERC721Enumerable",
  "abi": [
    {
      "inputs": [],
      "stateMutability": "nonpayable",
      "type": "constructor"
    },
    {
      "anonymous": false,
      "inputs": [
        {
          "indexed": true,
          "internalType": "address",
          "name": "_owner",
          "type": "address"
        },
        {
          "indexed": true,
          "internalType": "address",
          "name": "_approved",
          "type": "address"
        },
        {
          "indexed": true,
          "internalType": "uint256",
          "name": "_tokenId",
          "type": "uint256"
        }
      ],
      "name": "Approval",
      "type": "event"
    },
    {
      "anonymous": false,
      "inputs": [
        {
          "indexed": true,
          "internalType": "address",
          "name": "_from",
          "type": "address"
        },
        {
          "indexed": true,
          "internalType": "address",
          "name": "_to",
          "type": "address"
        },
        {
          "indexed": true,
          "internalType": "uint256",
          "name": "_tokenId",
          "type": "uint256"
        }
      ],
      "name": "Transfer",
      "type": "event"
    },
    {
      "inputs": [
        {
          "internalType": "address",
          "name": "_owner",
          "type": "address"
        }
      ],
      "name": "balanceOf",
      "outputs": [
        {
          "internalType": "uint256",
          "name": "",
          "type": "uint256"
        }
      ],
      "stateMutability": "view",
      "type": "function"
    },
    {
      "inputs": [
        {
          "internalType": "uint256",
          "name": "_tokenId",
          "type": "uint256"
        }
      ],
      "name": "ownerOf",
      "outputs": [
        {
          "internalType": "address",
          "name": "",
          "type": "address"
        }
      ],
      "stateMutability": "view",
      "type": "function"
    },
    {
      "inputs": [
        {
          "internalType": "bytes4",
          "name": "interfaceId",
          "type": "bytes4"
        }
      ],
      "name": "registerInterface",
      "outputs": [],
      "stateMutability": "nonpayable",
      "type": "function"
    },
    {
      "inputs": [
        {
          "internalType": "bytes4",
          "name": "interfaceId",
          "type": "bytes4"
        }
      ],
      "name": "supportsInterface",
      "outputs": [
        {
          "internalType": "bool",
          "name": "",
          "type": "bool"
        }
      ],
      "stateMutability": "view",
      "type": "function"
    },
    {
      "inputs": [
        {
          "internalType": "address",
          "name": "_from",
          "type": "address"
        },
        {
          "internalType": "address",
          "name": "_to",
          "type": "address"
        },
        {
          "internalType": "uint256",
          "name": "_tokenId",
          "type": "uint256"
        }
      ],
      "name": "transferFrom",
      "outputs": [],
      "stateMutability": "nonpayable",
      "type": "function"
    },
    {
      "inputs": [
        {
          "internalType": "uint256",
          "name": "_index",
          "type": "uint256"
        }
      ],
      "name": "tokenByIndex",
      "outputs": [
        {
          "internalType": "uint256",
          "name": "",
          "type": "uint256"
        }
      ],
      "stateMutability": "view",
      "type": "function"
    },
    {
      "inputs": [
        {
          "internalType": "address",
          "name": "_owner",
          "type": "address"
        },
        {
          "internalType": "uint256",
          "name": "_index",
          "type": "uint256"
        }
      ],
      "name": "tokenOfOwnerByIndex",
      "outputs": [
        {
          "internalType": "uint256",
          "name": "",
          "type": "uint256"
        }
      ],
      "stateMutability": "view",
      "type": "function"
    },
    {
      "inputs": [],
      "name": "totalSupply",
      "outputs": [
        {
          "internalType": "uint256",
          "name": "",
          "type": "uint256"
        }
      ],
      "stateMutability": "view",
      "type": "function"
    }
  ],
  "bytecode": "0x608060405234801561001057600080fd5b506100407f01ffc9a7a5cef8baa21ed3c5c0d7e23accb804b619e9333b597f47a0d84076e261012b60201b60201c565b6100b37f22c82707ba960a14c7592ffb6b8cfaa073fed0048a84cc7fa41f6b5bd8e7f2e47f3a6eb71757dfc6e784c1459d26270140c2c147d95ca985c80026fc5301c3eca17f8a7e378434598edc36d108689a030cbc9d7d465de4f74c71bae1028eed6a881b181861012b60201b60201c565b6101267fc53637662700e6c65104059db8bba34439e0c32483ab7c34e3ccae52c73954957f8230223f691b981717299fae9549350a0d894555723531f02108b1f522c1a7977f6da5e1284143cdd2d15038a59bde3be031250f00291d64494c12d967b3a4e0c3181861012b60201b60201c565b61027c565b63ffffffff60e01b817bffffffffffffffffffffffffffffffffffffffffffffffffffffffff191603610193576040517f08c379a000000000000000000000000000000000000000000000000000000000815260040161018a9061025c565b60405180910390fd5b6001600080837bffffffffffffffffffffffffffffffffffffffffffffffffffffffff19167bffffffffffffffffffffffffffffffffffffffffffffffffffffffff1916815260200190815260200160002060006101000a81548160ff02191690831515021790555050565b600082825260208201905092915050565b7f496e76616c696420696e74657266616365206964000000000000000000000000600082015250565b60006102466014836101ff565b915061025182610210565b602082019050919050565b6000602082019050818103600083015261027581610239565b9050919050565b610e1b806200028c6000396000f3fe608060405234801561001057600080fd5b50600436106100885760003560e01c80632f745c591161005b5780632f745c59146101135780634f6ccce7146101435780636352211e1461017357806370a08231146101a357610088565b806301ffc9a71461008d57806318160ddd146100bd578063214cdb80146100db57806323b872dd146100f7575b600080fd5b6100a760048036038101906100a291906107e0565b6101d3565b6040516100b49190610828565b60405180910390f35b6100c561023a565b6040516100d2919061085c565b60405180910390f35b6100f560048036038101906100f091906107e0565b610247565b005b610111600480360381019061010c9190610901565b61031b565b005b61012d60048036038101906101289190610954565b61032b565b60405161013a919061085c565b60405180910390f35b61015d60048036038101906101589190610994565b6103db565b60405161016a919061085c565b60405180910390f35b61018d60048036038101906101889190610994565b61044c565b60405161019a91906109d0565b60405180910390f35b6101bd60048036038101906101b891906109eb565b6104fd565b6040516101ca919061085c565b60405180910390f35b6000806000837bffffffffffffffffffffffffffffffffffffffffffffffffffffffff19167bffffffffffffffffffffffffffffffffffffffffffffffffffffffff1916815260200190815260200160002060009054906101000a900460ff169050919050565b6000600480549050905090565b63ffffffff60e01b817bffffffffffffffffffffffffffffffffffffffffffffffffffffffff1916036102af576040517f08c379a00000000000000000000000000000000000000000000000000000000081526004016102a690610a75565b60405180910390fd5b6001600080837bffffffffffffffffffffffffffffffffffffffffffffffffffffffff19167bffffffffffffffffffffffffffffffffffffffffffffffffffffffff1916815260200190815260200160002060006101000a81548160ff02191690831515021790555050565b6103268383836105b4565b505050565b6000610336836104fd565b8210610377576040517f08c379a000000000000000000000000000000000000000000000000000000000815260040161036e90610ae1565b60405180910390fd5b600660008473ffffffffffffffffffffffffffffffffffffffff1673ffffffffffffffffffffffffffffffffffffffff16815260200190815260200160002082815481106103c8576103c7610b01565b5b9060005260206000200154905092915050565b60006103e561023a565b8210610426576040517f08c379a000000000000000000000000000000000000000000000000000000000815260040161041d90610b7c565b60405180910390fd5b6004828154811061043a57610439610b01565b5b90600052602060002001549050919050565b6000806001600084815260200190815260200160002060009054906101000a900473ffffffffffffffffffffffffffffffffffffffff169050600073ffffffffffffffffffffffffffffffffffffffff168173ffffffffffffffffffffffffffffffffffffffff16036104f4576040517f08c379a00000000000000000000000000000000000000000000000000000000081526004016104eb90610c0e565b60405180910390fd5b80915050919050565b60008073ffffffffffffffffffffffffffffffffffffffff168273ffffffffffffffffffffffffffffffffffffffff160361056d576040517f08c379a000000000000000000000000000000000000000000000000000000000815260040161056490610ca0565b60405180910390fd5b600260008373ffffffffffffffffffffffffffffffffffffffff1673ffffffffffffffffffffffffffffffffffffffff168152602001908152602001600020549050919050565b600073ffffffffffffffffffffffffffffffffffffffff168273ffffffffffffffffffffffffffffffffffffffff1603610623576040517f08c379a000000000000000000000000000000000000000000000000000000000815260040161061a90610d0c565b60405180910390fd5b6001600260008573ffffffffffffffffffffffffffffffffffffffff1673ffffffffffffffffffffffffffffffffffffffff16815260200190815260200160002060008282546106739190610d5b565b925050819055506001600260008473ffffffffffffffffffffffffffffffffffffffff1673ffffffffffffffffffffffffffffffffffffffff16815260200190815260200160002060008282546106ca9190610d8f565b92505081905550816001600083815260200190815260200160002060006101000a81548173ffffffffffffffffffffffffffffffffffffffff021916908373ffffffffffffffffffffffffffffffffffffffff160217905550808273ffffffffffffffffffffffffffffffffffffffff168473ffffffffffffffffffffffffffffffffffffffff167fddf252ad1be2c89b69c2b068fc378daa952ba7f163c4a11628f55a4df523b3ef60405160405180910390a4505050565b600080fd5b60007fffffffff0000000000000000000000000000000000000000000000000000000082169050919050565b6107bd81610788565b81146107c857600080fd5b50565b6000813590506107da816107b4565b92915050565b6000602082840312156107f6576107f5610783565b5b6000610804848285016107cb565b91505092915050565b60008115159050919050565b6108228161080d565b82525050565b600060208201905061083d6000830184610819565b92915050565b6000819050919050565b61085681610843565b82525050565b6000602082019050610871600083018461084d565b92915050565b600073ffffffffffffffffffffffffffffffffffffffff82169050919050565b60006108a282610877565b9050919050565b6108b281610897565b81146108bd57600080fd5b50565b6000813590506108cf816108a9565b92915050565b6108de81610843565b81146108e957600080fd5b50565b6000813590506108fb816108d5565b92915050565b60008060006060848603121561091a57610919610783565b5b6000610928868287016108c0565b9350506020610939868287016108c0565b925050604061094a868287016108ec565b9150509250925092565b6000806040838503121561096b5761096a610783565b5b6000610979858286016108c0565b925050602061098a858286016108ec565b9150509250929050565b6000602082840312156109aa576109a9610783565b5b60006109b8848285016108ec565b91505092915050565b6109ca81610897565b82525050565b60006020820190506109e560008301846109c1565b92915050565b600060208284031215610a0157610a00610783565b5b6000610a0f848285016108c0565b91505092915050565b600082825260208201905092915050565b7f496e76616c696420696e74657266616365206964000000000000000000000000600082015250565b6000610a5f601483610a18565b9150610a6a82610a29565b602082019050919050565b60006020820190508181036000830152610a8e81610a52565b9050919050565b7f4f776e657220696e646578206973206f7574206f6620626f756e647300000000600082015250565b6000610acb601c83610a18565b9150610ad682610a95565b602082019050919050565b60006020820190508181036000830152610afa81610abe565b9050919050565b7f4e487b7100000000000000000000000000000000000000000000000000000000600052603260045260246000fd5b7f476c6f62616c20696e646578206973206f7574206f6620626f756e6473000000600082015250565b6000610b66601d83610a18565b9150610b7182610b30565b602082019050919050565b60006020820190508181036000830152610b9581610b59565b9050919050565b7f456d707479206f776e657220717565727920666f72206e6f6e2d65786973746960008201527f6e67204e46540000000000000000000000000000000000000000000000000000602082015250565b6000610bf8602683610a18565b9150610c0382610b9c565b604082019050919050565b60006020820190508181036000830152610c2781610beb565b9050919050565b7f456d707479206f776e657220717572657920666f72206e6f6e2d65786973746960008201527f6e67204e46540000000000000000000000000000000000000000000000000000602082015250565b6000610c8a602683610a18565b9150610c9582610c2e565b604082019050919050565b60006020820190508181036000830152610cb981610c7d565b9050919050565b7f5472616e7366657220746f20746865207a65726f206164647265737300000000600082015250565b6000610cf6601c83610a18565b9150610d0182610cc0565b602082019050919050565b60006020820190508181036000830152610d2581610ce9565b9050919050565b7f4e487b7100000000000000000000000000000000000000000000000000000000600052601160045260246000fd5b6000610d6682610843565b9150610d7183610843565b925082821015610d8457610d83610d2c565b5b828203905092915050565b6000610d9a82610843565b9150610da583610843565b9250827fffffffffffffffffffffffffffffffffffffffffffffffffffffffffffffffff03821115610dda57610dd9610d2c565b5b82820190509291505056fea2646970667358221220f3056513e226ab8a78afee6bd8b344e4bb06b20f57f9f1664f01d21fc035874f64736f6c634300080d0033",
  "immutableReferences": {},
  "source": "// SPDX-License-Identifier: MIT\r\npragma solidity ^0.8.0;\r\n\r\nimport \"./ERC721.sol\";\r\nimport './interfaces/IERC721Enumerable.sol';\r\n\r\ncontract ERC721Enumerable is ERC721, IERC721Enumerable {\r\n    uint256[] private _allTokens;\r\n\r\n    mapping(uint256 => uint256) private _allTokensIndex;\r\n    mapping(address => uint256[]) private _ownedTokens;\r\n    mapping(uint256 => uint256) private _ownedTokensIndex;\r\n\r\n    constructor() {\r\n     registerInterface( bytes4( keccak256( \"tokenByIndex(bytes4)\") ^ keccak256( \"tokenOfOwnerByIndex(bytes4)\") ^ keccak256( \"totalSupply(bytes4)\") ) );\r\n    }\r\n\r\n\r\n    function tokenByIndex(uint256 _index) external override view returns (uint256) {\r\n        require(_index < totalSupply(), \"Global index is out of bounds\");\r\n        return _allTokens[_index];\r\n    }\r\n\r\n    function tokenOfOwnerByIndex(address _owner, uint256 _index) external override view returns (uint256){\r\n        require( _index < balanceOf( _owner ), \"Owner index is out of bounds\" );\r\n        return _ownedTokens[_owner][_index];\r\n    }\r\n\r\n    function _mint(address to, uint256 tokenId) internal override(ERC721) {\r\n        super._mint(to, tokenId);\r\n        _addTokensToAllTokenEnumeration(tokenId);\r\n        _addTokensToOwnerEnumeration(to, tokenId);\r\n    }\r\n\r\n    function _addTokensToAllTokenEnumeration(uint256 tokenId) private {\r\n        _allTokensIndex[tokenId] = _allTokens.length;\r\n        _allTokens.push(tokenId);\r\n    }\r\n\r\n    function _addTokensToOwnerEnumeration(address to, uint256 tokenId) private {\r\n        _ownedTokensIndex[tokenId] = _ownedTokens[to].length;\r\n        _ownedTokens[to].push(tokenId);\r\n    }\r\n\r\n    function totalSupply() public view override returns (uint256) {\r\n        return _allTokens.length;\r\n    }\r\n}\r\n",
  "sourcePath": "C:\\Users\\sudda\\Desktop\\bc\\kryptobirds\\src\\contracts\\ERC721Enumerable.sol",
  "compiler": {
    "name": "solc",
    "version": "0.8.13+commit.abaa5c0e.Emscripten.clang"
  },
  "schemaVersion": "3.4.7",
  "updatedAt": "2022-04-30T17:21:29.761Z",
  "devdoc": {
    "kind": "dev",
    "methods": {},
    "version": 1
  },
  "userdoc": {
    "kind": "user",
    "methods": {},
    "version": 1
  }
}