{
  "contractName": "ERC721Metadata",
  "abi": [
    {
      "inputs": [
        {
          "internalType": "string",
          "name": "named",
          "type": "string"
        },
        {
          "internalType": "string",
          "name": "symbolified",
          "type": "string"
        }
      ],
      "stateMutability": "nonpayable",
      "type": "constructor"
    },
    {
      "inputs": [
        {
          "internalType": "bytes4",
          "name": "interfaceId",
          "type": "bytes4"
        }
      ],
      "name": "registerInterface",
      "outputs": [],
      "stateMutability": "nonpayable",
      "type": "function"
    },
    {
      "inputs": [
        {
          "internalType": "bytes4",
          "name": "interfaceId",
          "type": "bytes4"
        }
      ],
      "name": "supportsInterface",
      "outputs": [
        {
          "internalType": "bool",
          "name": "",
          "type": "bool"
        }
      ],
      "stateMutability": "view",
      "type": "function"
    },
    {
      "inputs": [],
      "name": "name",
      "outputs": [
        {
          "internalType": "string",
          "name": "",
          "type": "string"
        }
      ],
      "stateMutability": "view",
      "type": "function"
    },
    {
      "inputs": [],
      "name": "symbol",
      "outputs": [
        {
          "internalType": "string",
          "name": "",
          "type": "string"
        }
      ],
      "stateMutability": "view",
      "type": "function"
    }
  ],
  "bytecode": "0x60806040523480156200001157600080fd5b5060405162000b4a38038062000b4a833981810160405281019062000037919062000419565b620000687f01ffc9a7a5cef8baa21ed3c5c0d7e23accb804b619e9333b597f47a0d84076e2620000f560201b60201c565b620000bb7f13b182f4c0e5b2efbac0efe6cf6d756c8b89f4b79c5707a043ed9ea740574ee97f7feaf19471f34a12a7eaf32d5f3090aa2260ea8624dc8a138e74e0bf0f62307618620000f560201b60201c565b8160019080519060200190620000d3929190620001cc565b508060029080519060200190620000ec929190620001cc565b50505062000585565b63ffffffff60e01b817bffffffffffffffffffffffffffffffffffffffffffffffffffffffff19160362000160576040517f08c379a00000000000000000000000000000000000000000000000000000000081526004016200015790620004ff565b60405180910390fd5b6001600080837bffffffffffffffffffffffffffffffffffffffffffffffffffffffff19167bffffffffffffffffffffffffffffffffffffffffffffffffffffffff1916815260200190815260200160002060006101000a81548160ff02191690831515021790555050565b828054620001da9062000550565b90600052602060002090601f016020900481019282620001fe57600085556200024a565b82601f106200021957805160ff19168380011785556200024a565b828001600101855582156200024a579182015b82811115620002495782518255916020019190600101906200022c565b5b5090506200025991906200025d565b5090565b5b80821115620002785760008160009055506001016200025e565b5090565b6000604051905090565b600080fd5b600080fd5b600080fd5b600080fd5b6000601f19601f8301169050919050565b7f4e487b7100000000000000000000000000000000000000000000000000000000600052604160045260246000fd5b620002e5826200029a565b810181811067ffffffffffffffff82111715620003075762000306620002ab565b5b80604052505050565b60006200031c6200027c565b90506200032a8282620002da565b919050565b600067ffffffffffffffff8211156200034d576200034c620002ab565b5b62000358826200029a565b9050602081019050919050565b60005b838110156200038557808201518184015260208101905062000368565b8381111562000395576000848401525b50505050565b6000620003b2620003ac846200032f565b62000310565b905082815260208101848484011115620003d157620003d062000295565b5b620003de84828562000365565b509392505050565b600082601f830112620003fe57620003fd62000290565b5b8151620004108482602086016200039b565b91505092915050565b6000806040838503121562000433576200043262000286565b5b600083015167ffffffffffffffff8111156200045457620004536200028b565b5b6200046285828601620003e6565b925050602083015167ffffffffffffffff8111156200048657620004856200028b565b5b6200049485828601620003e6565b9150509250929050565b600082825260208201905092915050565b7f496e76616c696420696e74657266616365206964000000000000000000000000600082015250565b6000620004e76014836200049e565b9150620004f482620004af565b602082019050919050565b600060208201905081810360008301526200051a81620004d8565b9050919050565b7f4e487b7100000000000000000000000000000000000000000000000000000000600052602260045260246000fd5b600060028204905060018216806200056957607f821691505b6020821081036200057f576200057e62000521565b5b50919050565b6105b580620005956000396000f3fe608060405234801561001057600080fd5b506004361061004c5760003560e01c806301ffc9a71461005157806306fdde0314610081578063214cdb801461009f57806395d89b41146100bb575b600080fd5b61006b60048036038101906100669190610395565b6100d9565b60405161007891906103dd565b60405180910390f35b610089610140565b6040516100969190610491565b60405180910390f35b6100b960048036038101906100b49190610395565b6101d2565b005b6100c36102a6565b6040516100d09190610491565b60405180910390f35b6000806000837bffffffffffffffffffffffffffffffffffffffffffffffffffffffff19167bffffffffffffffffffffffffffffffffffffffffffffffffffffffff1916815260200190815260200160002060009054906101000a900460ff169050919050565b60606001805461014f906104e2565b80601f016020809104026020016040519081016040528092919081815260200182805461017b906104e2565b80156101c85780601f1061019d576101008083540402835291602001916101c8565b820191906000526020600020905b8154815290600101906020018083116101ab57829003601f168201915b5050505050905090565b63ffffffff60e01b817bffffffffffffffffffffffffffffffffffffffffffffffffffffffff19160361023a576040517f08c379a00000000000000000000000000000000000000000000000000000000081526004016102319061055f565b60405180910390fd5b6001600080837bffffffffffffffffffffffffffffffffffffffffffffffffffffffff19167bffffffffffffffffffffffffffffffffffffffffffffffffffffffff1916815260200190815260200160002060006101000a81548160ff02191690831515021790555050565b6060600280546102b5906104e2565b80601f01602080910402602001604051908101604052809291908181526020018280546102e1906104e2565b801561032e5780601f106103035761010080835404028352916020019161032e565b820191906000526020600020905b81548152906001019060200180831161031157829003601f168201915b5050505050905090565b600080fd5b60007fffffffff0000000000000000000000000000000000000000000000000000000082169050919050565b6103728161033d565b811461037d57600080fd5b50565b60008135905061038f81610369565b92915050565b6000602082840312156103ab576103aa610338565b5b60006103b984828501610380565b91505092915050565b60008115159050919050565b6103d7816103c2565b82525050565b60006020820190506103f260008301846103ce565b92915050565b600081519050919050565b600082825260208201905092915050565b60005b83811015610432578082015181840152602081019050610417565b83811115610441576000848401525b50505050565b6000601f19601f8301169050919050565b6000610463826103f8565b61046d8185610403565b935061047d818560208601610414565b61048681610447565b840191505092915050565b600060208201905081810360008301526104ab8184610458565b905092915050565b7f4e487b7100000000000000000000000000000000000000000000000000000000600052602260045260246000fd5b600060028204905060018216806104fa57607f821691505b60208210810361050d5761050c6104b3565b5b50919050565b7f496e76616c696420696e74657266616365206964000000000000000000000000600082015250565b6000610549601483610403565b915061055482610513565b602082019050919050565b600060208201905081810360008301526105788161053c565b905091905056fea264697066735822122020f688207246baee42a2727b2e893191defa6f5bd5d28bcd2807dc6d028b12dd64736f6c634300080d0033",
  "immutableReferences": {},
  "source": "// SPDX-License-Identifier: MIT\r\npragma solidity ^0.8.0;\r\n\r\nimport './interfaces/IERC721Metadata.sol';\r\nimport './ERC165.sol';\r\n\r\ncontract ERC721Metadata is IERC721Metadata, ERC165 {\r\n    \r\n    string private _name;\r\n    string private _symbol;\r\n\r\n    constructor(string memory named, string memory symbolified ){\r\n     registerInterface( bytes4( keccak256( \"name(bytes4)\") ^ keccak256( \"symbol(bytes4)\") ) );\r\n     \r\n     _name = named;\r\n     _symbol = symbolified;\r\n    }\r\n\r\n    function name() external view override returns(string memory){\r\n        return _name;\r\n    }\r\n    function symbol() external view override returns(string memory){\r\n        return _symbol;\r\n    }\r\n}",
  "sourcePath": "C:\\Users\\sudda\\Desktop\\bc\\kryptobirds\\src\\contracts\\ERC721Metadata.sol",
  "compiler": {
    "name": "solc",
    "version": "0.8.13+commit.abaa5c0e.Emscripten.clang"
  },
  "schemaVersion": "3.4.7",
  "updatedAt": "2022-04-30T17:21:29.776Z",
  "devdoc": {
    "kind": "dev",
    "methods": {},
    "version": 1
  },
  "userdoc": {
    "kind": "user",
    "methods": {},
    "version": 1
  }
}