{
  "contractName": "ERC721Enumerable",
  "abi": [
    {
      "anonymous": false,
      "inputs": [
        {
          "indexed": true,
          "internalType": "address",
          "name": "from",
          "type": "address"
        },
        {
          "indexed": true,
          "internalType": "address",
          "name": "to",
          "type": "address"
        },
        {
          "indexed": true,
          "internalType": "uint256",
          "name": "tokenId",
          "type": "uint256"
        }
      ],
      "name": "Transfer",
      "type": "event"
    },
    {
      "inputs": [
        {
          "internalType": "address",
          "name": "_owner",
          "type": "address"
        }
      ],
      "name": "balanceOf",
      "outputs": [
        {
          "internalType": "uint256",
          "name": "",
          "type": "uint256"
        }
      ],
      "stateMutability": "view",
      "type": "function"
    },
    {
      "inputs": [
        {
          "internalType": "uint256",
          "name": "_tokenId",
          "type": "uint256"
        }
      ],
      "name": "ownerOf",
      "outputs": [
        {
          "internalType": "address",
          "name": "",
          "type": "address"
        }
      ],
      "stateMutability": "view",
      "type": "function"
    },
    {
      "inputs": [
        {
          "internalType": "uint256",
          "name": "_index",
          "type": "uint256"
        }
      ],
      "name": "tokenByIndex",
      "outputs": [
        {
          "internalType": "uint256",
          "name": "",
          "type": "uint256"
        }
      ],
      "stateMutability": "view",
      "type": "function"
    },
    {
      "inputs": [
        {
          "internalType": "address",
          "name": "_owner",
          "type": "address"
        },
        {
          "internalType": "uint256",
          "name": "_index",
          "type": "uint256"
        }
      ],
      "name": "tokenOfOwnerByIndex",
      "outputs": [
        {
          "internalType": "uint256",
          "name": "",
          "type": "uint256"
        }
      ],
      "stateMutability": "view",
      "type": "function"
    },
    {
      "inputs": [],
      "name": "_totalSupply",
      "outputs": [
        {
          "internalType": "uint256",
          "name": "",
          "type": "uint256"
        }
      ],
      "stateMutability": "view",
      "type": "function"
    }
  ],
  "bytecode": "0x608060405234801561001057600080fd5b506107c8806100206000396000f3fe608060405234801561001057600080fd5b50600436106100575760003560e01c80632f745c591461005c5780633eaaf86b1461008c5780634f6ccce7146100aa5780636352211e146100da57806370a082311461010a575b600080fd5b61007660048036038101906100719190610468565b61013a565b60405161008391906104b7565b60405180910390f35b6100946101ea565b6040516100a191906104b7565b60405180910390f35b6100c460048036038101906100bf91906104d2565b6101f7565b6040516100d191906104b7565b60405180910390f35b6100f460048036038101906100ef91906104d2565b610268565b604051610101919061050e565b60405180910390f35b610124600480360381019061011f9190610529565b610318565b60405161013191906104b7565b60405180910390f35b600061014583610318565b8210610186576040517f08c379a000000000000000000000000000000000000000000000000000000000815260040161017d906105b3565b60405180910390fd5b600460008473ffffffffffffffffffffffffffffffffffffffff1673ffffffffffffffffffffffffffffffffffffffff16815260200190815260200160002082815481106101d7576101d66105d3565b5b9060005260206000200154905092915050565b6000600280549050905090565b60006102016101ea565b8210610242576040517f08c379a00000000000000000000000000000000000000000000000000000000081526004016102399061064e565b60405180910390fd5b60028281548110610256576102556105d3565b5b90600052602060002001549050919050565b60008060008084815260200190815260200160002060009054906101000a900473ffffffffffffffffffffffffffffffffffffffff169050600073ffffffffffffffffffffffffffffffffffffffff168173ffffffffffffffffffffffffffffffffffffffff160361030f576040517f08c379a0000000000000000000000000000000000000000000000000000000008152600401610306906106e0565b60405180910390fd5b80915050919050565b60008073ffffffffffffffffffffffffffffffffffffffff168273ffffffffffffffffffffffffffffffffffffffff1603610388576040517f08c379a000000000000000000000000000000000000000000000000000000000815260040161037f90610772565b60405180910390fd5b600160008373ffffffffffffffffffffffffffffffffffffffff1673ffffffffffffffffffffffffffffffffffffffff168152602001908152602001600020549050919050565b600080fd5b600073ffffffffffffffffffffffffffffffffffffffff82169050919050565b60006103ff826103d4565b9050919050565b61040f816103f4565b811461041a57600080fd5b50565b60008135905061042c81610406565b92915050565b6000819050919050565b61044581610432565b811461045057600080fd5b50565b6000813590506104628161043c565b92915050565b6000806040838503121561047f5761047e6103cf565b5b600061048d8582860161041d565b925050602061049e85828601610453565b9150509250929050565b6104b181610432565b82525050565b60006020820190506104cc60008301846104a8565b92915050565b6000602082840312156104e8576104e76103cf565b5b60006104f684828501610453565b91505092915050565b610508816103f4565b82525050565b600060208201905061052360008301846104ff565b92915050565b60006020828403121561053f5761053e6103cf565b5b600061054d8482850161041d565b91505092915050565b600082825260208201905092915050565b7f4f776e657220696e646578206973206f7574206f6620626f756e647300000000600082015250565b600061059d601c83610556565b91506105a882610567565b602082019050919050565b600060208201905081810360008301526105cc81610590565b9050919050565b7f4e487b7100000000000000000000000000000000000000000000000000000000600052603260045260246000fd5b7f476c6f62616c20696e646578206973206f7574206f6620626f756e6473000000600082015250565b6000610638601d83610556565b915061064382610602565b602082019050919050565b600060208201905081810360008301526106678161062b565b9050919050565b7f456d707479206f776e657220717565727920666f72206e6f6e2d65786973746960008201527f6e67204e46540000000000000000000000000000000000000000000000000000602082015250565b60006106ca602683610556565b91506106d58261066e565b604082019050919050565b600060208201905081810360008301526106f9816106bd565b9050919050565b7f456d707479206f776e657220717572657920666f72206e6f6e2d65786973746960008201527f6e67204e46540000000000000000000000000000000000000000000000000000602082015250565b600061075c602683610556565b915061076782610700565b604082019050919050565b6000602082019050818103600083015261078b8161074f565b905091905056fea2646970667358221220e731af307bde0886b6e33aad9041b5d0dd6160acc04df1c5f04e8901f2308a7764736f6c634300080d0033",
  "immutableReferences": {},
  "source": "// SPDX-License-Identifier: MIT\r\npragma solidity ^0.8.0;\r\n\r\nimport \"./ERC721.sol\";\r\n\r\ncontract ERC721Enumerable is ERC721 {\r\n    uint256[] private _allTokens;\r\n\r\n    mapping(uint256 => uint256) private _allTokensIndex;\r\n    mapping(address => uint256[]) private _ownedTokens;\r\n    mapping(uint256 => uint256) private _ownedTokensIndex;\r\n\r\n    function tokenByIndex(uint256 _index) external view returns (uint256) {\r\n        require(_index < _totalSupply(), \"Global index is out of bounds\");\r\n        return _allTokens[_index];\r\n    }\r\n\r\n    function tokenOfOwnerByIndex(address _owner, uint256 _index) external view returns (uint256){\r\n        require( _index < balanceOf( _owner ), \"Owner index is out of bounds\" );\r\n        return _ownedTokens[_owner][_index];\r\n    }\r\n\r\n    function _mint(address to, uint256 tokenId) internal override(ERC721) {\r\n        super._mint(to, tokenId);\r\n        _addTokensToAllTokenEnumeration(tokenId);\r\n        _addTokensToOwnerEnumeration(to, tokenId);\r\n    }\r\n\r\n    function _addTokensToAllTokenEnumeration(uint256 tokenId) private {\r\n        _allTokensIndex[tokenId] = _allTokens.length;\r\n        _allTokens.push(tokenId);\r\n    }\r\n\r\n    function _addTokensToOwnerEnumeration(address to, uint256 tokenId) private {\r\n        _ownedTokensIndex[tokenId] = _ownedTokens[to].length;\r\n        _ownedTokens[to].push(tokenId);\r\n    }\r\n\r\n    function _totalSupply() public view returns (uint256) {\r\n        return _allTokens.length;\r\n    }\r\n}\r\n",
  "sourcePath": "C:\\Users\\sudda\\Desktop\\bc\\kryptobirds\\src\\contracts\\ERC721Enumerable.sol",
  "compiler": {
    "name": "solc",
    "version": "0.8.13+commit.abaa5c0e.Emscripten.clang"
  },
  "schemaVersion": "3.4.7",
  "updatedAt": "2022-04-28T20:44:03.983Z",
  "devdoc": {
    "kind": "dev",
    "methods": {},
    "version": 1
  },
  "userdoc": {
    "kind": "user",
    "methods": {},
    "version": 1
  }
}