{
  "contractName": "ERC721Connector",
  "abi": [
    {
      "inputs": [
        {
          "internalType": "string",
          "name": "name",
          "type": "string"
        },
        {
          "internalType": "string",
          "name": "symbol",
          "type": "string"
        }
      ],
      "stateMutability": "nonpayable",
      "type": "constructor"
    },
    {
      "anonymous": false,
      "inputs": [
        {
          "indexed": true,
          "internalType": "address",
          "name": "_owner",
          "type": "address"
        },
        {
          "indexed": true,
          "internalType": "address",
          "name": "_approved",
          "type": "address"
        },
        {
          "indexed": true,
          "internalType": "uint256",
          "name": "_tokenId",
          "type": "uint256"
        }
      ],
      "name": "Approval",
      "type": "event"
    },
    {
      "anonymous": false,
      "inputs": [
        {
          "indexed": true,
          "internalType": "address",
          "name": "_from",
          "type": "address"
        },
        {
          "indexed": true,
          "internalType": "address",
          "name": "_to",
          "type": "address"
        },
        {
          "indexed": true,
          "internalType": "uint256",
          "name": "_tokenId",
          "type": "uint256"
        }
      ],
      "name": "Transfer",
      "type": "event"
    },
    {
      "inputs": [
        {
          "internalType": "address",
          "name": "_owner",
          "type": "address"
        }
      ],
      "name": "balanceOf",
      "outputs": [
        {
          "internalType": "uint256",
          "name": "",
          "type": "uint256"
        }
      ],
      "stateMutability": "view",
      "type": "function"
    },
    {
      "inputs": [],
      "name": "name",
      "outputs": [
        {
          "internalType": "string",
          "name": "",
          "type": "string"
        }
      ],
      "stateMutability": "view",
      "type": "function"
    },
    {
      "inputs": [
        {
          "internalType": "uint256",
          "name": "_tokenId",
          "type": "uint256"
        }
      ],
      "name": "ownerOf",
      "outputs": [
        {
          "internalType": "address",
          "name": "",
          "type": "address"
        }
      ],
      "stateMutability": "view",
      "type": "function"
    },
    {
      "inputs": [
        {
          "internalType": "bytes4",
          "name": "interfaceId",
          "type": "bytes4"
        }
      ],
      "name": "registerInterface",
      "outputs": [],
      "stateMutability": "nonpayable",
      "type": "function"
    },
    {
      "inputs": [
        {
          "internalType": "bytes4",
          "name": "interfaceId",
          "type": "bytes4"
        }
      ],
      "name": "supportsInterface",
      "outputs": [
        {
          "internalType": "bool",
          "name": "",
          "type": "bool"
        }
      ],
      "stateMutability": "view",
      "type": "function"
    },
    {
      "inputs": [],
      "name": "symbol",
      "outputs": [
        {
          "internalType": "string",
          "name": "",
          "type": "string"
        }
      ],
      "stateMutability": "view",
      "type": "function"
    },
    {
      "inputs": [
        {
          "internalType": "uint256",
          "name": "_index",
          "type": "uint256"
        }
      ],
      "name": "tokenByIndex",
      "outputs": [
        {
          "internalType": "uint256",
          "name": "",
          "type": "uint256"
        }
      ],
      "stateMutability": "view",
      "type": "function"
    },
    {
      "inputs": [
        {
          "internalType": "address",
          "name": "_owner",
          "type": "address"
        },
        {
          "internalType": "uint256",
          "name": "_index",
          "type": "uint256"
        }
      ],
      "name": "tokenOfOwnerByIndex",
      "outputs": [
        {
          "internalType": "uint256",
          "name": "",
          "type": "uint256"
        }
      ],
      "stateMutability": "view",
      "type": "function"
    },
    {
      "inputs": [],
      "name": "totalSupply",
      "outputs": [
        {
          "internalType": "uint256",
          "name": "",
          "type": "uint256"
        }
      ],
      "stateMutability": "view",
      "type": "function"
    },
    {
      "inputs": [
        {
          "internalType": "address",
          "name": "_from",
          "type": "address"
        },
        {
          "internalType": "address",
          "name": "_to",
          "type": "address"
        },
        {
          "internalType": "uint256",
          "name": "_tokenId",
          "type": "uint256"
        }
      ],
      "name": "transferFrom",
      "outputs": [],
      "stateMutability": "nonpayable",
      "type": "function"
    }
  ],
  "bytecode": "0x60806040523480156200001157600080fd5b506040516200171e3803806200171e833981810160405281019062000037919062000507565b81816200006a7f01ffc9a7a5cef8baa21ed3c5c0d7e23accb804b619e9333b597f47a0d84076e2620001e360201b60201c565b620000bd7f13b182f4c0e5b2efbac0efe6cf6d756c8b89f4b79c5707a043ed9ea740574ee97f7feaf19471f34a12a7eaf32d5f3090aa2260ea8624dc8a138e74e0bf0f62307618620001e360201b60201c565b8160019080519060200190620000d5929190620002ba565b508060029080519060200190620000ee929190620002ba565b505050620001667f22c82707ba960a14c7592ffb6b8cfaa073fed0048a84cc7fa41f6b5bd8e7f2e47f3a6eb71757dfc6e784c1459d26270140c2c147d95ca985c80026fc5301c3eca17f8a7e378434598edc36d108689a030cbc9d7d465de4f74c71bae1028eed6a881b1818620001e360201b60201c565b620001db7fc53637662700e6c65104059db8bba34439e0c32483ab7c34e3ccae52c73954957f8230223f691b981717299fae9549350a0d894555723531f02108b1f522c1a7977f6da5e1284143cdd2d15038a59bde3be031250f00291d64494c12d967b3a4e0c31818620001e360201b60201c565b505062000673565b63ffffffff60e01b817bffffffffffffffffffffffffffffffffffffffffffffffffffffffff1916036200024e576040517f08c379a00000000000000000000000000000000000000000000000000000000081526004016200024590620005ed565b60405180910390fd5b6001600080837bffffffffffffffffffffffffffffffffffffffffffffffffffffffff19167bffffffffffffffffffffffffffffffffffffffffffffffffffffffff1916815260200190815260200160002060006101000a81548160ff02191690831515021790555050565b828054620002c8906200063e565b90600052602060002090601f016020900481019282620002ec576000855562000338565b82601f106200030757805160ff191683800117855562000338565b8280016001018555821562000338579182015b82811115620003375782518255916020019190600101906200031a565b5b5090506200034791906200034b565b5090565b5b80821115620003665760008160009055506001016200034c565b5090565b6000604051905090565b600080fd5b600080fd5b600080fd5b600080fd5b6000601f19601f8301169050919050565b7f4e487b7100000000000000000000000000000000000000000000000000000000600052604160045260246000fd5b620003d38262000388565b810181811067ffffffffffffffff82111715620003f557620003f462000399565b5b80604052505050565b60006200040a6200036a565b9050620004188282620003c8565b919050565b600067ffffffffffffffff8211156200043b576200043a62000399565b5b620004468262000388565b9050602081019050919050565b60005b838110156200047357808201518184015260208101905062000456565b8381111562000483576000848401525b50505050565b6000620004a06200049a846200041d565b620003fe565b905082815260208101848484011115620004bf57620004be62000383565b5b620004cc84828562000453565b509392505050565b600082601f830112620004ec57620004eb6200037e565b5b8151620004fe84826020860162000489565b91505092915050565b6000806040838503121562000521576200052062000374565b5b600083015167ffffffffffffffff81111562000542576200054162000379565b5b6200055085828601620004d4565b925050602083015167ffffffffffffffff81111562000574576200057362000379565b5b6200058285828601620004d4565b9150509250929050565b600082825260208201905092915050565b7f496e76616c696420696e74657266616365206964000000000000000000000000600082015250565b6000620005d56014836200058c565b9150620005e2826200059d565b602082019050919050565b600060208201905081810360008301526200060881620005c6565b9050919050565b7f4e487b7100000000000000000000000000000000000000000000000000000000600052602260045260246000fd5b600060028204905060018216806200065757607f821691505b6020821081036200066d576200066c6200060f565b5b50919050565b61109b80620006836000396000f3fe608060405234801561001057600080fd5b506004361061009e5760003560e01c80632f745c59116100665780632f745c59146101475780634f6ccce7146101775780636352211e146101a757806370a08231146101d757806395d89b41146102075761009e565b806301ffc9a7146100a357806306fdde03146100d357806318160ddd146100f1578063214cdb801461010f57806323b872dd1461012b575b600080fd5b6100bd60048036038101906100b89190610956565b610225565b6040516100ca919061099e565b60405180910390f35b6100db61028c565b6040516100e89190610a52565b60405180910390f35b6100f961031e565b6040516101069190610a8d565b60405180910390f35b61012960048036038101906101249190610956565b61032b565b005b61014560048036038101906101409190610b32565b6103ff565b005b610161600480360381019061015c9190610b85565b61040f565b60405161016e9190610a8d565b60405180910390f35b610191600480360381019061018c9190610bc5565b6104bf565b60405161019e9190610a8d565b60405180910390f35b6101c160048036038101906101bc9190610bc5565b610530565b6040516101ce9190610c01565b60405180910390f35b6101f160048036038101906101ec9190610c1c565b6105e1565b6040516101fe9190610a8d565b60405180910390f35b61020f610698565b60405161021c9190610a52565b60405180910390f35b6000806000837bffffffffffffffffffffffffffffffffffffffffffffffffffffffff19167bffffffffffffffffffffffffffffffffffffffffffffffffffffffff1916815260200190815260200160002060009054906101000a900460ff169050919050565b60606001805461029b90610c78565b80601f01602080910402602001604051908101604052809291908181526020018280546102c790610c78565b80156103145780601f106102e957610100808354040283529160200191610314565b820191906000526020600020905b8154815290600101906020018083116102f757829003601f168201915b5050505050905090565b6000600680549050905090565b63ffffffff60e01b817bffffffffffffffffffffffffffffffffffffffffffffffffffffffff191603610393576040517f08c379a000000000000000000000000000000000000000000000000000000000815260040161038a90610cf5565b60405180910390fd5b6001600080837bffffffffffffffffffffffffffffffffffffffffffffffffffffffff19167bffffffffffffffffffffffffffffffffffffffffffffffffffffffff1916815260200190815260200160002060006101000a81548160ff02191690831515021790555050565b61040a83838361072a565b505050565b600061041a836105e1565b821061045b576040517f08c379a000000000000000000000000000000000000000000000000000000000815260040161045290610d61565b60405180910390fd5b600860008473ffffffffffffffffffffffffffffffffffffffff1673ffffffffffffffffffffffffffffffffffffffff16815260200190815260200160002082815481106104ac576104ab610d81565b5b9060005260206000200154905092915050565b60006104c961031e565b821061050a576040517f08c379a000000000000000000000000000000000000000000000000000000000815260040161050190610dfc565b60405180910390fd5b6006828154811061051e5761051d610d81565b5b90600052602060002001549050919050565b6000806003600084815260200190815260200160002060009054906101000a900473ffffffffffffffffffffffffffffffffffffffff169050600073ffffffffffffffffffffffffffffffffffffffff168173ffffffffffffffffffffffffffffffffffffffff16036105d8576040517f08c379a00000000000000000000000000000000000000000000000000000000081526004016105cf90610e8e565b60405180910390fd5b80915050919050565b60008073ffffffffffffffffffffffffffffffffffffffff168273ffffffffffffffffffffffffffffffffffffffff1603610651576040517f08c379a000000000000000000000000000000000000000000000000000000000815260040161064890610f20565b60405180910390fd5b600460008373ffffffffffffffffffffffffffffffffffffffff1673ffffffffffffffffffffffffffffffffffffffff168152602001908152602001600020549050919050565b6060600280546106a790610c78565b80601f01602080910402602001604051908101604052809291908181526020018280546106d390610c78565b80156107205780601f106106f557610100808354040283529160200191610720565b820191906000526020600020905b81548152906001019060200180831161070357829003601f168201915b5050505050905090565b600073ffffffffffffffffffffffffffffffffffffffff168273ffffffffffffffffffffffffffffffffffffffff1603610799576040517f08c379a000000000000000000000000000000000000000000000000000000000815260040161079090610f8c565b60405180910390fd5b6001600460008573ffffffffffffffffffffffffffffffffffffffff1673ffffffffffffffffffffffffffffffffffffffff16815260200190815260200160002060008282546107e99190610fdb565b925050819055506001600460008473ffffffffffffffffffffffffffffffffffffffff1673ffffffffffffffffffffffffffffffffffffffff1681526020019081526020016000206000828254610840919061100f565b92505081905550816003600083815260200190815260200160002060006101000a81548173ffffffffffffffffffffffffffffffffffffffff021916908373ffffffffffffffffffffffffffffffffffffffff160217905550808273ffffffffffffffffffffffffffffffffffffffff168473ffffffffffffffffffffffffffffffffffffffff167fddf252ad1be2c89b69c2b068fc378daa952ba7f163c4a11628f55a4df523b3ef60405160405180910390a4505050565b600080fd5b60007fffffffff0000000000000000000000000000000000000000000000000000000082169050919050565b610933816108fe565b811461093e57600080fd5b50565b6000813590506109508161092a565b92915050565b60006020828403121561096c5761096b6108f9565b5b600061097a84828501610941565b91505092915050565b60008115159050919050565b61099881610983565b82525050565b60006020820190506109b3600083018461098f565b92915050565b600081519050919050565b600082825260208201905092915050565b60005b838110156109f35780820151818401526020810190506109d8565b83811115610a02576000848401525b50505050565b6000601f19601f8301169050919050565b6000610a24826109b9565b610a2e81856109c4565b9350610a3e8185602086016109d5565b610a4781610a08565b840191505092915050565b60006020820190508181036000830152610a6c8184610a19565b905092915050565b6000819050919050565b610a8781610a74565b82525050565b6000602082019050610aa26000830184610a7e565b92915050565b600073ffffffffffffffffffffffffffffffffffffffff82169050919050565b6000610ad382610aa8565b9050919050565b610ae381610ac8565b8114610aee57600080fd5b50565b600081359050610b0081610ada565b92915050565b610b0f81610a74565b8114610b1a57600080fd5b50565b600081359050610b2c81610b06565b92915050565b600080600060608486031215610b4b57610b4a6108f9565b5b6000610b5986828701610af1565b9350506020610b6a86828701610af1565b9250506040610b7b86828701610b1d565b9150509250925092565b60008060408385031215610b9c57610b9b6108f9565b5b6000610baa85828601610af1565b9250506020610bbb85828601610b1d565b9150509250929050565b600060208284031215610bdb57610bda6108f9565b5b6000610be984828501610b1d565b91505092915050565b610bfb81610ac8565b82525050565b6000602082019050610c166000830184610bf2565b92915050565b600060208284031215610c3257610c316108f9565b5b6000610c4084828501610af1565b91505092915050565b7f4e487b7100000000000000000000000000000000000000000000000000000000600052602260045260246000fd5b60006002820490506001821680610c9057607f821691505b602082108103610ca357610ca2610c49565b5b50919050565b7f496e76616c696420696e74657266616365206964000000000000000000000000600082015250565b6000610cdf6014836109c4565b9150610cea82610ca9565b602082019050919050565b60006020820190508181036000830152610d0e81610cd2565b9050919050565b7f4f776e657220696e646578206973206f7574206f6620626f756e647300000000600082015250565b6000610d4b601c836109c4565b9150610d5682610d15565b602082019050919050565b60006020820190508181036000830152610d7a81610d3e565b9050919050565b7f4e487b7100000000000000000000000000000000000000000000000000000000600052603260045260246000fd5b7f476c6f62616c20696e646578206973206f7574206f6620626f756e6473000000600082015250565b6000610de6601d836109c4565b9150610df182610db0565b602082019050919050565b60006020820190508181036000830152610e1581610dd9565b9050919050565b7f456d707479206f776e657220717565727920666f72206e6f6e2d65786973746960008201527f6e67204e46540000000000000000000000000000000000000000000000000000602082015250565b6000610e786026836109c4565b9150610e8382610e1c565b604082019050919050565b60006020820190508181036000830152610ea781610e6b565b9050919050565b7f456d707479206f776e657220717572657920666f72206e6f6e2d65786973746960008201527f6e67204e46540000000000000000000000000000000000000000000000000000602082015250565b6000610f0a6026836109c4565b9150610f1582610eae565b604082019050919050565b60006020820190508181036000830152610f3981610efd565b9050919050565b7f5472616e7366657220746f20746865207a65726f206164647265737300000000600082015250565b6000610f76601c836109c4565b9150610f8182610f40565b602082019050919050565b60006020820190508181036000830152610fa581610f69565b9050919050565b7f4e487b7100000000000000000000000000000000000000000000000000000000600052601160045260246000fd5b6000610fe682610a74565b9150610ff183610a74565b92508282101561100457611003610fac565b5b828203905092915050565b600061101a82610a74565b915061102583610a74565b9250827fffffffffffffffffffffffffffffffffffffffffffffffffffffffffffffffff0382111561105a57611059610fac565b5b82820190509291505056fea26469706673582212206053a2df9b73ecb489aa1cf35a90f8c39a64803c5867f470bd72397060450de264736f6c634300080d0033",
  "immutableReferences": {},
  "source": "// SPDX-License-Identifier: MIT\r\npragma solidity ^0.8.0;\r\n\r\nimport './ERC721Metadata.sol';\r\nimport './ERC721Enumerable.sol';\r\n\r\ncontract ERC721Connector  is ERC721Metadata, ERC721Enumerable {\r\n\r\n   constructor(string memory name, string memory symbol) ERC721Metadata(name, symbol) {\r\n\r\n   }\r\n\r\n}",
  "sourcePath": "C:\\Users\\sudda\\Desktop\\bc\\kryptobirds\\src\\contracts\\ERC721connector.sol",
  "compiler": {
    "name": "solc",
    "version": "0.8.13+commit.abaa5c0e.Emscripten.clang"
  },
  "schemaVersion": "3.4.7",
  "updatedAt": "2022-04-30T17:26:48.981Z",
  "devdoc": {
    "kind": "dev",
    "methods": {},
    "version": 1
  },
  "userdoc": {
    "kind": "user",
    "methods": {},
    "version": 1
  }
}