{
  "contractName": "KryptoBird",
  "abi": [
    {
      "inputs": [],
      "stateMutability": "nonpayable",
      "type": "constructor"
    },
    {
      "anonymous": false,
      "inputs": [
        {
          "indexed": true,
          "internalType": "address",
          "name": "from",
          "type": "address"
        },
        {
          "indexed": true,
          "internalType": "address",
          "name": "to",
          "type": "address"
        },
        {
          "indexed": true,
          "internalType": "uint256",
          "name": "tokenId",
          "type": "uint256"
        }
      ],
      "name": "Transfer",
      "type": "event"
    },
    {
      "inputs": [],
      "name": "_totalSupply",
      "outputs": [
        {
          "internalType": "uint256",
          "name": "",
          "type": "uint256"
        }
      ],
      "stateMutability": "view",
      "type": "function",
      "constant": true
    },
    {
      "inputs": [
        {
          "internalType": "address",
          "name": "_owner",
          "type": "address"
        }
      ],
      "name": "balanceOf",
      "outputs": [
        {
          "internalType": "uint256",
          "name": "",
          "type": "uint256"
        }
      ],
      "stateMutability": "view",
      "type": "function",
      "constant": true
    },
    {
      "inputs": [
        {
          "internalType": "uint256",
          "name": "",
          "type": "uint256"
        }
      ],
      "name": "kryptobirds",
      "outputs": [
        {
          "internalType": "string",
          "name": "",
          "type": "string"
        }
      ],
      "stateMutability": "view",
      "type": "function",
      "constant": true
    },
    {
      "inputs": [],
      "name": "name",
      "outputs": [
        {
          "internalType": "string",
          "name": "",
          "type": "string"
        }
      ],
      "stateMutability": "view",
      "type": "function",
      "constant": true
    },
    {
      "inputs": [
        {
          "internalType": "uint256",
          "name": "_tokenId",
          "type": "uint256"
        }
      ],
      "name": "ownerOf",
      "outputs": [
        {
          "internalType": "address",
          "name": "",
          "type": "address"
        }
      ],
      "stateMutability": "view",
      "type": "function",
      "constant": true
    },
    {
      "inputs": [],
      "name": "symbol",
      "outputs": [
        {
          "internalType": "string",
          "name": "",
          "type": "string"
        }
      ],
      "stateMutability": "view",
      "type": "function",
      "constant": true
    },
    {
      "inputs": [
        {
          "internalType": "string",
          "name": "_kryptobird",
          "type": "string"
        }
      ],
      "name": "mint",
      "outputs": [],
      "stateMutability": "nonpayable",
      "type": "function"
    }
  ],
  "bytecode": "0x60806040523480156200001157600080fd5b506040518060400160405280600a81526020017f4b727970746f42697264000000000000000000000000000000000000000000008152506040518060400160405280600681526020017f4b424952445300000000000000000000000000000000000000000000000000008152508181816000908051906020019062000098929190620000bc565b508060019080519060200190620000b1929190620000bc565b5050505050620001d0565b828054620000ca906200019b565b90600052602060002090601f016020900481019282620000ee57600085556200013a565b82601f106200010957805160ff19168380011785556200013a565b828001600101855582156200013a579182015b82811115620001395782518255916020019190600101906200011c565b5b5090506200014991906200014d565b5090565b5b80821115620001685760008160009055506001016200014e565b5090565b7f4e487b7100000000000000000000000000000000000000000000000000000000600052602260045260246000fd5b60006002820490506001821680620001b457607f821691505b602082108103620001ca57620001c96200016c565b5b50919050565b6110a880620001e06000396000f3fe608060405234801561001057600080fd5b506004361061007d5760003560e01c806370a082311161005b57806370a08231146100ee57806395d89b411461011e578063cf9ae1731461013c578063d85d3d271461016c5761007d565b806306fdde03146100825780633eaaf86b146100a05780636352211e146100be575b600080fd5b61008a610188565b6040516100979190610982565b60405180910390f35b6100a861021a565b6040516100b591906109bd565b60405180910390f35b6100d860048036038101906100d39190610a18565b610227565b6040516100e59190610a86565b60405180910390f35b61010860048036038101906101039190610acd565b6102d8565b60405161011591906109bd565b60405180910390f35b61012661038f565b6040516101339190610982565b60405180910390f35b61015660048036038101906101519190610a18565b610421565b6040516101639190610982565b60405180910390f35b61018660048036038101906101819190610c2f565b6104cd565b005b60606000805461019790610ca7565b80601f01602080910402602001604051908101604052809291908181526020018280546101c390610ca7565b80156102105780601f106101e557610100808354040283529160200191610210565b820191906000526020600020905b8154815290600101906020018083116101f357829003601f168201915b5050505050905090565b6000600480549050905090565b6000806002600084815260200190815260200160002060009054906101000a900473ffffffffffffffffffffffffffffffffffffffff169050600073ffffffffffffffffffffffffffffffffffffffff168173ffffffffffffffffffffffffffffffffffffffff16036102cf576040517f08c379a00000000000000000000000000000000000000000000000000000000081526004016102c690610d4a565b60405180910390fd5b80915050919050565b60008073ffffffffffffffffffffffffffffffffffffffff168273ffffffffffffffffffffffffffffffffffffffff1603610348576040517f08c379a000000000000000000000000000000000000000000000000000000000815260040161033f90610ddc565b60405180910390fd5b600360008373ffffffffffffffffffffffffffffffffffffffff1673ffffffffffffffffffffffffffffffffffffffff168152602001908152602001600020549050919050565b60606001805461039e90610ca7565b80601f01602080910402602001604051908101604052809291908181526020018280546103ca90610ca7565b80156104175780601f106103ec57610100808354040283529160200191610417565b820191906000526020600020905b8154815290600101906020018083116103fa57829003601f168201915b5050505050905090565b6008818154811061043157600080fd5b90600052602060002001600091509050805461044c90610ca7565b80601f016020809104026020016040519081016040528092919081815260200182805461047890610ca7565b80156104c55780601f1061049a576101008083540402835291602001916104c5565b820191906000526020600020905b8154815290600101906020018083116104a857829003601f168201915b505050505081565b6009816040516104dd9190610e38565b908152602001604051809103902060009054906101000a900460ff1615610539576040517f08c379a000000000000000000000000000000000000000000000000000000000815260040161053090610e9b565b60405180910390fd5b600881908060018154018082558091505060019003906000526020600020016000909190919091509080519060200190610574929190610846565b50600060016008805490506105899190610eea565b905061059533826105d0565b60016009836040516105a79190610e38565b908152602001604051809103902060006101000a81548160ff0219169083151502179055505050565b6105da82826105e7565b6105e3816107a8565b5050565b600073ffffffffffffffffffffffffffffffffffffffff168273ffffffffffffffffffffffffffffffffffffffff1603610656576040517f08c379a000000000000000000000000000000000000000000000000000000000815260040161064d90610f90565b60405180910390fd5b61065f816107d4565b1561069f576040517f08c379a000000000000000000000000000000000000000000000000000000000815260040161069690610ffc565b60405180910390fd5b816002600083815260200190815260200160002060006101000a81548173ffffffffffffffffffffffffffffffffffffffff021916908373ffffffffffffffffffffffffffffffffffffffff1602179055506001600360008473ffffffffffffffffffffffffffffffffffffffff1673ffffffffffffffffffffffffffffffffffffffff1681526020019081526020016000206000828254610741919061101c565b92505081905550808273ffffffffffffffffffffffffffffffffffffffff16600073ffffffffffffffffffffffffffffffffffffffff167fddf252ad1be2c89b69c2b068fc378daa952ba7f163c4a11628f55a4df523b3ef60405160405180910390a45050565b600481908060018154018082558091505060019003906000526020600020016000909190919091505550565b6000806002600084815260200190815260200160002060009054906101000a900473ffffffffffffffffffffffffffffffffffffffff169050600073ffffffffffffffffffffffffffffffffffffffff168173ffffffffffffffffffffffffffffffffffffffff161415915050919050565b82805461085290610ca7565b90600052602060002090601f01602090048101928261087457600085556108bb565b82601f1061088d57805160ff19168380011785556108bb565b828001600101855582156108bb579182015b828111156108ba57825182559160200191906001019061089f565b5b5090506108c891906108cc565b5090565b5b808211156108e55760008160009055506001016108cd565b5090565b600081519050919050565b600082825260208201905092915050565b60005b83811015610923578082015181840152602081019050610908565b83811115610932576000848401525b50505050565b6000601f19601f8301169050919050565b6000610954826108e9565b61095e81856108f4565b935061096e818560208601610905565b61097781610938565b840191505092915050565b6000602082019050818103600083015261099c8184610949565b905092915050565b6000819050919050565b6109b7816109a4565b82525050565b60006020820190506109d260008301846109ae565b92915050565b6000604051905090565b600080fd5b600080fd5b6109f5816109a4565b8114610a0057600080fd5b50565b600081359050610a12816109ec565b92915050565b600060208284031215610a2e57610a2d6109e2565b5b6000610a3c84828501610a03565b91505092915050565b600073ffffffffffffffffffffffffffffffffffffffff82169050919050565b6000610a7082610a45565b9050919050565b610a8081610a65565b82525050565b6000602082019050610a9b6000830184610a77565b92915050565b610aaa81610a65565b8114610ab557600080fd5b50565b600081359050610ac781610aa1565b92915050565b600060208284031215610ae357610ae26109e2565b5b6000610af184828501610ab8565b91505092915050565b600080fd5b600080fd5b7f4e487b7100000000000000000000000000000000000000000000000000000000600052604160045260246000fd5b610b3c82610938565b810181811067ffffffffffffffff82111715610b5b57610b5a610b04565b5b80604052505050565b6000610b6e6109d8565b9050610b7a8282610b33565b919050565b600067ffffffffffffffff821115610b9a57610b99610b04565b5b610ba382610938565b9050602081019050919050565b82818337600083830152505050565b6000610bd2610bcd84610b7f565b610b64565b905082815260208101848484011115610bee57610bed610aff565b5b610bf9848285610bb0565b509392505050565b600082601f830112610c1657610c15610afa565b5b8135610c26848260208601610bbf565b91505092915050565b600060208284031215610c4557610c446109e2565b5b600082013567ffffffffffffffff811115610c6357610c626109e7565b5b610c6f84828501610c01565b91505092915050565b7f4e487b7100000000000000000000000000000000000000000000000000000000600052602260045260246000fd5b60006002820490506001821680610cbf57607f821691505b602082108103610cd257610cd1610c78565b5b50919050565b7f456d707479206f776e657220717565727920666f72206e6f6e2d65786973746960008201527f6e67204e46540000000000000000000000000000000000000000000000000000602082015250565b6000610d346026836108f4565b9150610d3f82610cd8565b604082019050919050565b60006020820190508181036000830152610d6381610d27565b9050919050565b7f456d707479206f776e657220717572657920666f72206e6f6e2d65786973746960008201527f6e67204e46540000000000000000000000000000000000000000000000000000602082015250565b6000610dc66026836108f4565b9150610dd182610d6a565b604082019050919050565b60006020820190508181036000830152610df581610db9565b9050919050565b600081905092915050565b6000610e12826108e9565b610e1c8185610dfc565b9350610e2c818560208601610905565b80840191505092915050565b6000610e448284610e07565b915081905092915050565b7f4572726f72203a204b727970746f6269726420616c7265616479206578697374600082015250565b6000610e856020836108f4565b9150610e9082610e4f565b602082019050919050565b60006020820190508181036000830152610eb481610e78565b9050919050565b7f4e487b7100000000000000000000000000000000000000000000000000000000600052601160045260246000fd5b6000610ef5826109a4565b9150610f00836109a4565b925082821015610f1357610f12610ebb565b5b828203905092915050565b7f4552433732313a204d696e74696e6720746f20746865207a65726f206164647260008201527f6573730000000000000000000000000000000000000000000000000000000000602082015250565b6000610f7a6023836108f4565b9150610f8582610f1e565b604082019050919050565b60006020820190508181036000830152610fa981610f6d565b9050919050565b7f4552433732313a20416c7265616479206d696e74656400000000000000000000600082015250565b6000610fe66016836108f4565b9150610ff182610fb0565b602082019050919050565b6000602082019050818103600083015261101581610fd9565b9050919050565b6000611027826109a4565b9150611032836109a4565b9250827fffffffffffffffffffffffffffffffffffffffffffffffffffffffffffffffff0382111561106757611066610ebb565b5b82820190509291505056fea2646970667358221220341d0f56b8b99819b1d19ff25b7158fec6b6942ee1eedd37f9f2b73e20a3e2f364736f6c634300080d0033",
  "immutableReferences": {},
  "source": "// SPDX-License-Identifier: MIT\r\npragma solidity ^0.8.0;\r\n\r\nimport './ERC721connector.sol';\r\n\r\ncontract KryptoBird is ERC721Connector {\r\n    \r\n    string[] public kryptobirds;\r\n    \r\n    mapping(string => bool) _kryptoBirdsExists;\r\n\r\n    function mint(string memory _kryptobird) public{\r\n     \r\n     require( !_kryptoBirdsExists[_kryptobird], \"Error : Kryptobird already exist\");\r\n\r\n     kryptobirds.push(_kryptobird);\r\n     uint _id = kryptobirds.length - 1;\r\n     _mint(msg.sender, _id);\r\n    _kryptoBirdsExists[_kryptobird] = true;\r\n    }\r\n    constructor() ERC721Connector('KryptoBird', 'KBIRDS'){\r\n        \r\n    }\r\n\r\n}\r\n",
  "sourcePath": "C:\\Users\\sudda\\Desktop\\bc\\kryptobirds\\src\\contracts\\KryptoBirdz.sol",
  "compiler": {
    "name": "solc",
    "version": "0.8.13+commit.abaa5c0e.Emscripten.clang"
  },
  "schemaVersion": "3.4.7",
  "updatedAt": "2022-04-28T12:27:28.336Z",
  "networkType": "ethereum",
  "devdoc": {
    "kind": "dev",
    "methods": {},
    "version": 1
  },
  "userdoc": {
    "kind": "user",
    "methods": {},
    "version": 1
  }
}