{
  "contractName": "KryptoBird",
  "abi": [
    {
      "inputs": [],
      "stateMutability": "nonpayable",
      "type": "constructor"
    },
    {
      "anonymous": false,
      "inputs": [
        {
          "indexed": true,
          "internalType": "address",
          "name": "_owner",
          "type": "address"
        },
        {
          "indexed": true,
          "internalType": "address",
          "name": "_approved",
          "type": "address"
        },
        {
          "indexed": true,
          "internalType": "uint256",
          "name": "_tokenId",
          "type": "uint256"
        }
      ],
      "name": "Approval",
      "type": "event"
    },
    {
      "anonymous": false,
      "inputs": [
        {
          "indexed": true,
          "internalType": "address",
          "name": "_from",
          "type": "address"
        },
        {
          "indexed": true,
          "internalType": "address",
          "name": "_to",
          "type": "address"
        },
        {
          "indexed": true,
          "internalType": "uint256",
          "name": "_tokenId",
          "type": "uint256"
        }
      ],
      "name": "Transfer",
      "type": "event"
    },
    {
      "inputs": [
        {
          "internalType": "address",
          "name": "_owner",
          "type": "address"
        }
      ],
      "name": "balanceOf",
      "outputs": [
        {
          "internalType": "uint256",
          "name": "",
          "type": "uint256"
        }
      ],
      "stateMutability": "view",
      "type": "function"
    },
    {
      "inputs": [
        {
          "internalType": "uint256",
          "name": "",
          "type": "uint256"
        }
      ],
      "name": "kryptobirds",
      "outputs": [
        {
          "internalType": "string",
          "name": "",
          "type": "string"
        }
      ],
      "stateMutability": "view",
      "type": "function"
    },
    {
      "inputs": [],
      "name": "name",
      "outputs": [
        {
          "internalType": "string",
          "name": "",
          "type": "string"
        }
      ],
      "stateMutability": "view",
      "type": "function"
    },
    {
      "inputs": [
        {
          "internalType": "uint256",
          "name": "_tokenId",
          "type": "uint256"
        }
      ],
      "name": "ownerOf",
      "outputs": [
        {
          "internalType": "address",
          "name": "",
          "type": "address"
        }
      ],
      "stateMutability": "view",
      "type": "function"
    },
    {
      "inputs": [
        {
          "internalType": "bytes4",
          "name": "interfaceId",
          "type": "bytes4"
        }
      ],
      "name": "registerInterface",
      "outputs": [],
      "stateMutability": "nonpayable",
      "type": "function"
    },
    {
      "inputs": [
        {
          "internalType": "bytes4",
          "name": "interfaceId",
          "type": "bytes4"
        }
      ],
      "name": "supportsInterface",
      "outputs": [
        {
          "internalType": "bool",
          "name": "",
          "type": "bool"
        }
      ],
      "stateMutability": "view",
      "type": "function"
    },
    {
      "inputs": [],
      "name": "symbol",
      "outputs": [
        {
          "internalType": "string",
          "name": "",
          "type": "string"
        }
      ],
      "stateMutability": "view",
      "type": "function"
    },
    {
      "inputs": [
        {
          "internalType": "uint256",
          "name": "_index",
          "type": "uint256"
        }
      ],
      "name": "tokenByIndex",
      "outputs": [
        {
          "internalType": "uint256",
          "name": "",
          "type": "uint256"
        }
      ],
      "stateMutability": "view",
      "type": "function"
    },
    {
      "inputs": [
        {
          "internalType": "address",
          "name": "_owner",
          "type": "address"
        },
        {
          "internalType": "uint256",
          "name": "_index",
          "type": "uint256"
        }
      ],
      "name": "tokenOfOwnerByIndex",
      "outputs": [
        {
          "internalType": "uint256",
          "name": "",
          "type": "uint256"
        }
      ],
      "stateMutability": "view",
      "type": "function"
    },
    {
      "inputs": [],
      "name": "totalSupply",
      "outputs": [
        {
          "internalType": "uint256",
          "name": "",
          "type": "uint256"
        }
      ],
      "stateMutability": "view",
      "type": "function"
    },
    {
      "inputs": [
        {
          "internalType": "address",
          "name": "_from",
          "type": "address"
        },
        {
          "internalType": "address",
          "name": "_to",
          "type": "address"
        },
        {
          "internalType": "uint256",
          "name": "_tokenId",
          "type": "uint256"
        }
      ],
      "name": "transferFrom",
      "outputs": [],
      "stateMutability": "nonpayable",
      "type": "function"
    },
    {
      "inputs": [
        {
          "internalType": "string",
          "name": "_kryptobird",
          "type": "string"
        }
      ],
      "name": "mint",
      "outputs": [],
      "stateMutability": "nonpayable",
      "type": "function"
    }
  ],
  "bytecode": "0x60806040523480156200001157600080fd5b506040518060400160405280600a81526020017f4b727970746f42697264000000000000000000000000000000000000000000008152506040518060400160405280600681526020017f4b424952445300000000000000000000000000000000000000000000000000008152508181620000b17f01ffc9a7a5cef8baa21ed3c5c0d7e23accb804b619e9333b597f47a0d84076e26200022a60201b60201c565b620001047f13b182f4c0e5b2efbac0efe6cf6d756c8b89f4b79c5707a043ed9ea740574ee97f7feaf19471f34a12a7eaf32d5f3090aa2260ea8624dc8a138e74e0bf0f623076186200022a60201b60201c565b81600190805190602001906200011c92919062000301565b5080600290805190602001906200013592919062000301565b505050620001ad7f22c82707ba960a14c7592ffb6b8cfaa073fed0048a84cc7fa41f6b5bd8e7f2e47f3a6eb71757dfc6e784c1459d26270140c2c147d95ca985c80026fc5301c3eca17f8a7e378434598edc36d108689a030cbc9d7d465de4f74c71bae1028eed6a881b18186200022a60201b60201c565b620002227fc53637662700e6c65104059db8bba34439e0c32483ab7c34e3ccae52c73954957f8230223f691b981717299fae9549350a0d894555723531f02108b1f522c1a7977f6da5e1284143cdd2d15038a59bde3be031250f00291d64494c12d967b3a4e0c318186200022a60201b60201c565b505062000498565b63ffffffff60e01b817bffffffffffffffffffffffffffffffffffffffffffffffffffffffff19160362000295576040517f08c379a00000000000000000000000000000000000000000000000000000000081526004016200028c9062000412565b60405180910390fd5b6001600080837bffffffffffffffffffffffffffffffffffffffffffffffffffffffff19167bffffffffffffffffffffffffffffffffffffffffffffffffffffffff1916815260200190815260200160002060006101000a81548160ff02191690831515021790555050565b8280546200030f9062000463565b90600052602060002090601f0160209004810192826200033357600085556200037f565b82601f106200034e57805160ff19168380011785556200037f565b828001600101855582156200037f579182015b828111156200037e57825182559160200191906001019062000361565b5b5090506200038e919062000392565b5090565b5b80821115620003ad57600081600090555060010162000393565b5090565b600082825260208201905092915050565b7f496e76616c696420696e74657266616365206964000000000000000000000000600082015250565b6000620003fa601483620003b1565b91506200040782620003c2565b602082019050919050565b600060208201905081810360008301526200042d81620003eb565b9050919050565b7f4e487b7100000000000000000000000000000000000000000000000000000000600052602260045260246000fd5b600060028204905060018216806200047c57607f821691505b60208210810362000492576200049162000434565b5b50919050565b6119fa80620004a86000396000f3fe608060405234801561001057600080fd5b50600436106100b45760003560e01c80634f6ccce7116100715780634f6ccce71461018d5780636352211e146101bd57806370a08231146101ed57806395d89b411461021d578063cf9ae1731461023b578063d85d3d271461026b576100b4565b806301ffc9a7146100b957806306fdde03146100e957806318160ddd14610107578063214cdb801461012557806323b872dd146101415780632f745c591461015d575b600080fd5b6100d360048036038101906100ce9190610f7a565b610287565b6040516100e09190610fc2565b60405180910390f35b6100f16102ee565b6040516100fe9190611076565b60405180910390f35b61010f610380565b60405161011c91906110b1565b60405180910390f35b61013f600480360381019061013a9190610f7a565b61038d565b005b61015b60048036038101906101569190611156565b610461565b005b610177600480360381019061017291906111a9565b610471565b60405161018491906110b1565b60405180910390f35b6101a760048036038101906101a291906111e9565b610521565b6040516101b491906110b1565b60405180910390f35b6101d760048036038101906101d291906111e9565b610592565b6040516101e49190611225565b60405180910390f35b61020760048036038101906102029190611240565b610643565b60405161021491906110b1565b60405180910390f35b6102256106fa565b6040516102329190611076565b60405180910390f35b610255600480360381019061025091906111e9565b61078c565b6040516102629190611076565b60405180910390f35b610285600480360381019061028091906113a2565b610838565b005b6000806000837bffffffffffffffffffffffffffffffffffffffffffffffffffffffff19167bffffffffffffffffffffffffffffffffffffffffffffffffffffffff1916815260200190815260200160002060009054906101000a900460ff169050919050565b6060600180546102fd9061141a565b80601f01602080910402602001604051908101604052809291908181526020018280546103299061141a565b80156103765780601f1061034b57610100808354040283529160200191610376565b820191906000526020600020905b81548152906001019060200180831161035957829003601f168201915b5050505050905090565b6000600680549050905090565b63ffffffff60e01b817bffffffffffffffffffffffffffffffffffffffffffffffffffffffff1916036103f5576040517f08c379a00000000000000000000000000000000000000000000000000000000081526004016103ec90611497565b60405180910390fd5b6001600080837bffffffffffffffffffffffffffffffffffffffffffffffffffffffff19167bffffffffffffffffffffffffffffffffffffffffffffffffffffffff1916815260200190815260200160002060006101000a81548160ff02191690831515021790555050565b61046c83838361093b565b505050565b600061047c83610643565b82106104bd576040517f08c379a00000000000000000000000000000000000000000000000000000000081526004016104b490611503565b60405180910390fd5b600860008473ffffffffffffffffffffffffffffffffffffffff1673ffffffffffffffffffffffffffffffffffffffff168152602001908152602001600020828154811061050e5761050d611523565b5b9060005260206000200154905092915050565b600061052b610380565b821061056c576040517f08c379a00000000000000000000000000000000000000000000000000000000081526004016105639061159e565b60405180910390fd5b600682815481106105805761057f611523565b5b90600052602060002001549050919050565b6000806003600084815260200190815260200160002060009054906101000a900473ffffffffffffffffffffffffffffffffffffffff169050600073ffffffffffffffffffffffffffffffffffffffff168173ffffffffffffffffffffffffffffffffffffffff160361063a576040517f08c379a000000000000000000000000000000000000000000000000000000000815260040161063190611630565b60405180910390fd5b80915050919050565b60008073ffffffffffffffffffffffffffffffffffffffff168273ffffffffffffffffffffffffffffffffffffffff16036106b3576040517f08c379a00000000000000000000000000000000000000000000000000000000081526004016106aa906116c2565b60405180910390fd5b600460008373ffffffffffffffffffffffffffffffffffffffff1673ffffffffffffffffffffffffffffffffffffffff168152602001908152602001600020549050919050565b6060600280546107099061141a565b80601f01602080910402602001604051908101604052809291908181526020018280546107359061141a565b80156107825780601f1061075757610100808354040283529160200191610782565b820191906000526020600020905b81548152906001019060200180831161076557829003601f168201915b5050505050905090565b600a818154811061079c57600080fd5b9060005260206000200160009150905080546107b79061141a565b80601f01602080910402602001604051908101604052809291908181526020018280546107e39061141a565b80156108305780601f1061080557610100808354040283529160200191610830565b820191906000526020600020905b81548152906001019060200180831161081357829003601f168201915b505050505081565b600b81604051610848919061171e565b908152602001604051809103902060009054906101000a900460ff16156108a4576040517f08c379a000000000000000000000000000000000000000000000000000000000815260040161089b90611781565b60405180910390fd5b600a819080600181540180825580915050600190039060005260206000200160009091909190915090805190602001906108df929190610e6b565b5060006001600a805490506108f491906117d0565b90506109003382610b0a565b6001600b83604051610912919061171e565b908152602001604051809103902060006101000a81548160ff0219169083151502179055505050565b600073ffffffffffffffffffffffffffffffffffffffff168273ffffffffffffffffffffffffffffffffffffffff16036109aa576040517f08c379a00000000000000000000000000000000000000000000000000000000081526004016109a190611850565b60405180910390fd5b6001600460008573ffffffffffffffffffffffffffffffffffffffff1673ffffffffffffffffffffffffffffffffffffffff16815260200190815260200160002060008282546109fa91906117d0565b925050819055506001600460008473ffffffffffffffffffffffffffffffffffffffff1673ffffffffffffffffffffffffffffffffffffffff1681526020019081526020016000206000828254610a519190611870565b92505081905550816003600083815260200190815260200160002060006101000a81548173ffffffffffffffffffffffffffffffffffffffff021916908373ffffffffffffffffffffffffffffffffffffffff160217905550808273ffffffffffffffffffffffffffffffffffffffff168473ffffffffffffffffffffffffffffffffffffffff167fddf252ad1be2c89b69c2b068fc378daa952ba7f163c4a11628f55a4df523b3ef60405160405180910390a4505050565b610b148282610b2b565b610b1d81610cec565b610b278282610d35565b5050565b600073ffffffffffffffffffffffffffffffffffffffff168273ffffffffffffffffffffffffffffffffffffffff1603610b9a576040517f08c379a0000000000000000000000000000000000000000000000000000000008152600401610b9190611938565b60405180910390fd5b610ba381610df9565b15610be3576040517f08c379a0000000000000000000000000000000000000000000000000000000008152600401610bda906119a4565b60405180910390fd5b816003600083815260200190815260200160002060006101000a81548173ffffffffffffffffffffffffffffffffffffffff021916908373ffffffffffffffffffffffffffffffffffffffff1602179055506001600460008473ffffffffffffffffffffffffffffffffffffffff1673ffffffffffffffffffffffffffffffffffffffff1681526020019081526020016000206000828254610c859190611870565b92505081905550808273ffffffffffffffffffffffffffffffffffffffff16600073ffffffffffffffffffffffffffffffffffffffff167fddf252ad1be2c89b69c2b068fc378daa952ba7f163c4a11628f55a4df523b3ef60405160405180910390a45050565b6006805490506007600083815260200190815260200160002081905550600681908060018154018082558091505060019003906000526020600020016000909190919091505550565b600860008373ffffffffffffffffffffffffffffffffffffffff1673ffffffffffffffffffffffffffffffffffffffff168152602001908152602001600020805490506009600083815260200190815260200160002081905550600860008373ffffffffffffffffffffffffffffffffffffffff1673ffffffffffffffffffffffffffffffffffffffff1681526020019081526020016000208190806001815401808255809150506001900390600052602060002001600090919091909150555050565b6000806003600084815260200190815260200160002060009054906101000a900473ffffffffffffffffffffffffffffffffffffffff169050600073ffffffffffffffffffffffffffffffffffffffff168173ffffffffffffffffffffffffffffffffffffffff161415915050919050565b828054610e779061141a565b90600052602060002090601f016020900481019282610e995760008555610ee0565b82601f10610eb257805160ff1916838001178555610ee0565b82800160010185558215610ee0579182015b82811115610edf578251825591602001919060010190610ec4565b5b509050610eed9190610ef1565b5090565b5b80821115610f0a576000816000905550600101610ef2565b5090565b6000604051905090565b600080fd5b600080fd5b60007fffffffff0000000000000000000000000000000000000000000000000000000082169050919050565b610f5781610f22565b8114610f6257600080fd5b50565b600081359050610f7481610f4e565b92915050565b600060208284031215610f9057610f8f610f18565b5b6000610f9e84828501610f65565b91505092915050565b60008115159050919050565b610fbc81610fa7565b82525050565b6000602082019050610fd76000830184610fb3565b92915050565b600081519050919050565b600082825260208201905092915050565b60005b83811015611017578082015181840152602081019050610ffc565b83811115611026576000848401525b50505050565b6000601f19601f8301169050919050565b600061104882610fdd565b6110528185610fe8565b9350611062818560208601610ff9565b61106b8161102c565b840191505092915050565b60006020820190508181036000830152611090818461103d565b905092915050565b6000819050919050565b6110ab81611098565b82525050565b60006020820190506110c660008301846110a2565b92915050565b600073ffffffffffffffffffffffffffffffffffffffff82169050919050565b60006110f7826110cc565b9050919050565b611107816110ec565b811461111257600080fd5b50565b600081359050611124816110fe565b92915050565b61113381611098565b811461113e57600080fd5b50565b6000813590506111508161112a565b92915050565b60008060006060848603121561116f5761116e610f18565b5b600061117d86828701611115565b935050602061118e86828701611115565b925050604061119f86828701611141565b9150509250925092565b600080604083850312156111c0576111bf610f18565b5b60006111ce85828601611115565b92505060206111df85828601611141565b9150509250929050565b6000602082840312156111ff576111fe610f18565b5b600061120d84828501611141565b91505092915050565b61121f816110ec565b82525050565b600060208201905061123a6000830184611216565b92915050565b60006020828403121561125657611255610f18565b5b600061126484828501611115565b91505092915050565b600080fd5b600080fd5b7f4e487b7100000000000000000000000000000000000000000000000000000000600052604160045260246000fd5b6112af8261102c565b810181811067ffffffffffffffff821117156112ce576112cd611277565b5b80604052505050565b60006112e1610f0e565b90506112ed82826112a6565b919050565b600067ffffffffffffffff82111561130d5761130c611277565b5b6113168261102c565b9050602081019050919050565b82818337600083830152505050565b6000611345611340846112f2565b6112d7565b90508281526020810184848401111561136157611360611272565b5b61136c848285611323565b509392505050565b600082601f8301126113895761138861126d565b5b8135611399848260208601611332565b91505092915050565b6000602082840312156113b8576113b7610f18565b5b600082013567ffffffffffffffff8111156113d6576113d5610f1d565b5b6113e284828501611374565b91505092915050565b7f4e487b7100000000000000000000000000000000000000000000000000000000600052602260045260246000fd5b6000600282049050600182168061143257607f821691505b602082108103611445576114446113eb565b5b50919050565b7f496e76616c696420696e74657266616365206964000000000000000000000000600082015250565b6000611481601483610fe8565b915061148c8261144b565b602082019050919050565b600060208201905081810360008301526114b081611474565b9050919050565b7f4f776e657220696e646578206973206f7574206f6620626f756e647300000000600082015250565b60006114ed601c83610fe8565b91506114f8826114b7565b602082019050919050565b6000602082019050818103600083015261151c816114e0565b9050919050565b7f4e487b7100000000000000000000000000000000000000000000000000000000600052603260045260246000fd5b7f476c6f62616c20696e646578206973206f7574206f6620626f756e6473000000600082015250565b6000611588601d83610fe8565b915061159382611552565b602082019050919050565b600060208201905081810360008301526115b78161157b565b9050919050565b7f456d707479206f776e657220717565727920666f72206e6f6e2d65786973746960008201527f6e67204e46540000000000000000000000000000000000000000000000000000602082015250565b600061161a602683610fe8565b9150611625826115be565b604082019050919050565b600060208201905081810360008301526116498161160d565b9050919050565b7f456d707479206f776e657220717572657920666f72206e6f6e2d65786973746960008201527f6e67204e46540000000000000000000000000000000000000000000000000000602082015250565b60006116ac602683610fe8565b91506116b782611650565b604082019050919050565b600060208201905081810360008301526116db8161169f565b9050919050565b600081905092915050565b60006116f882610fdd565b61170281856116e2565b9350611712818560208601610ff9565b80840191505092915050565b600061172a82846116ed565b915081905092915050565b7f4572726f72203a204b727970746f6269726420616c7265616479206578697374600082015250565b600061176b602083610fe8565b915061177682611735565b602082019050919050565b6000602082019050818103600083015261179a8161175e565b9050919050565b7f4e487b7100000000000000000000000000000000000000000000000000000000600052601160045260246000fd5b60006117db82611098565b91506117e683611098565b9250828210156117f9576117f86117a1565b5b828203905092915050565b7f5472616e7366657220746f20746865207a65726f206164647265737300000000600082015250565b600061183a601c83610fe8565b915061184582611804565b602082019050919050565b600060208201905081810360008301526118698161182d565b9050919050565b600061187b82611098565b915061188683611098565b9250827fffffffffffffffffffffffffffffffffffffffffffffffffffffffffffffffff038211156118bb576118ba6117a1565b5b828201905092915050565b7f4552433732313a204d696e74696e6720746f20746865207a65726f206164647260008201527f6573730000000000000000000000000000000000000000000000000000000000602082015250565b6000611922602383610fe8565b915061192d826118c6565b604082019050919050565b6000602082019050818103600083015261195181611915565b9050919050565b7f4552433732313a20416c7265616479206d696e74656400000000000000000000600082015250565b600061198e601683610fe8565b915061199982611958565b602082019050919050565b600060208201905081810360008301526119bd81611981565b905091905056fea264697066735822122082130b0773b7cedc8837af2e8e9fe43b6c65aee375c3c839e5cf0f8f973e273f64736f6c634300080d0033",
  "immutableReferences": {},
  "source": "// SPDX-License-Identifier: MIT\r\npragma solidity ^0.8.0;\r\n\r\nimport './ERC721connector.sol';\r\n\r\ncontract KryptoBird is ERC721Connector {\r\n    \r\n    string[] public kryptobirds;\r\n    \r\n    mapping(string => bool) _kryptoBirdsExists;\r\n\r\n    function mint(string memory _kryptobird) public{\r\n     \r\n     require( !_kryptoBirdsExists[_kryptobird], \"Error : Kryptobird already exist\");\r\n\r\n     kryptobirds.push(_kryptobird);\r\n     uint _id = kryptobirds.length - 1;\r\n     _mint(msg.sender, _id);\r\n    _kryptoBirdsExists[_kryptobird] = true;\r\n    }\r\n    constructor() ERC721Connector('KryptoBird', 'KBIRDS'){\r\n        \r\n    }\r\n\r\n}\r\n",
  "sourcePath": "C:\\Users\\sudda\\Desktop\\bc\\kryptobirds\\src\\contracts\\KryptoBirdz.sol",
  "compiler": {
    "name": "solc",
    "version": "0.8.13+commit.abaa5c0e.Emscripten.clang"
  },
  "schemaVersion": "3.4.7",
  "updatedAt": "2022-04-30T17:26:49.000Z",
  "devdoc": {
    "kind": "dev",
    "methods": {},
    "version": 1
  },
  "userdoc": {
    "kind": "user",
    "methods": {},
    "version": 1
  }
}